{
  "contractName": "RWD",
  "abi": [
    {
      "constant": true,
      "inputs": [],
      "name": "name",
      "outputs": [
        {
          "name": "",
          "type": "string"
        }
      ],
      "payable": false,
      "stateMutability": "view",
      "type": "function"
    },
    {
      "constant": true,
      "inputs": [],
      "name": "totalSupply",
      "outputs": [
        {
          "name": "",
          "type": "uint256"
        }
      ],
      "payable": false,
      "stateMutability": "view",
      "type": "function"
    },
    {
      "constant": true,
      "inputs": [
        {
          "name": "",
          "type": "address"
        }
      ],
      "name": "balanceOf",
      "outputs": [
        {
          "name": "",
          "type": "uint256"
        }
      ],
      "payable": false,
      "stateMutability": "view",
      "type": "function"
    },
    {
      "constant": true,
      "inputs": [],
      "name": "decimal",
      "outputs": [
        {
          "name": "",
          "type": "uint8"
        }
      ],
      "payable": false,
      "stateMutability": "view",
      "type": "function"
    },
    {
      "constant": true,
      "inputs": [],
      "name": "symbol",
      "outputs": [
        {
          "name": "",
          "type": "string"
        }
      ],
      "payable": false,
      "stateMutability": "view",
      "type": "function"
    },
    {
      "constant": true,
      "inputs": [
        {
          "name": "",
          "type": "address"
        },
        {
          "name": "",
          "type": "address"
        }
      ],
      "name": "allowance",
      "outputs": [
        {
          "name": "",
          "type": "uint256"
        }
      ],
      "payable": false,
      "stateMutability": "view",
      "type": "function"
    },
    {
      "inputs": [],
      "payable": false,
      "stateMutability": "nonpayable",
      "type": "constructor"
    },
    {
      "anonymous": false,
      "inputs": [
        {
          "indexed": true,
          "name": "_from",
          "type": "address"
        },
        {
          "indexed": true,
          "name": "_to",
          "type": "address"
        },
        {
          "indexed": false,
          "name": "_value",
          "type": "uint256"
        }
      ],
      "name": "Transfer",
      "type": "event"
    },
    {
      "anonymous": false,
      "inputs": [
        {
          "indexed": true,
          "name": "_owner",
          "type": "address"
        },
        {
          "indexed": true,
          "name": "_spender",
          "type": "address"
        },
        {
          "indexed": false,
          "name": "_value",
          "type": "uint256"
        }
      ],
      "name": "Approval",
      "type": "event"
    },
    {
      "constant": false,
      "inputs": [
        {
          "name": "_to",
          "type": "address"
        },
        {
          "name": "_value",
          "type": "uint256"
        }
      ],
      "name": "transfer",
      "outputs": [
        {
          "name": "success",
          "type": "bool"
        }
      ],
      "payable": false,
      "stateMutability": "nonpayable",
      "type": "function"
    },
    {
      "constant": false,
      "inputs": [
        {
          "name": "_spender",
          "type": "address"
        },
        {
          "name": "_value",
          "type": "uint256"
        }
      ],
      "name": "approve",
      "outputs": [
        {
          "name": "success",
          "type": "bool"
        }
      ],
      "payable": false,
      "stateMutability": "nonpayable",
      "type": "function"
    },
    {
      "constant": false,
      "inputs": [
        {
          "name": "_from",
          "type": "address"
        },
        {
          "name": "_to",
          "type": "address"
        },
        {
          "name": "_value",
          "type": "uint256"
        }
      ],
      "name": "TransferFrom",
      "outputs": [
        {
          "name": "success",
          "type": "bool"
        }
      ],
      "payable": false,
      "stateMutability": "nonpayable",
      "type": "function"
    }
  ],
  "bytecode": "0x60806040526040805190810160405280600c81526020017f52657761726420546f6b656e00000000000000000000000000000000000000008152506000908051906020019061004f92919061011e565b506040805190810160405280600381526020017f52574400000000000000000000000000000000000000000000000000000000008152506001908051906020019061009b92919061011e565b5069d3c21bcecceda10000006002556012600360006101000a81548160ff021916908360ff1602179055503480156100d257600080fd5b50600254600460003373ffffffffffffffffffffffffffffffffffffffff1673ffffffffffffffffffffffffffffffffffffffff168152602001908152602001600020819055506101c3565b828054600181600116156101000203166002900490600052602060002090601f016020900481019282601f1061015f57805160ff191683800117855561018d565b8280016001018555821561018d579182015b8281111561018c578251825591602001919060010190610171565b5b50905061019a919061019e565b5090565b6101c091905b808211156101bc5760008160009055506001016101a4565b5090565b90565b610aef806101d26000396000f3fe608060405260043610610093576000357c01000000000000000000000000000000000000000000000000000000009004806306fdde0314610098578063095ea7b31461012857806318160ddd1461019b57806370a08231146101c657806376809ce31461022b57806395d89b411461025c578063a9059cbb146102ec578063c0d84ce51461035f578063dd62ed3e146103f2575b600080fd5b3480156100a457600080fd5b506100ad610477565b6040518080602001828103825283818151815260200191508051906020019080838360005b838110156100ed5780820151818401526020810190506100d2565b50505050905090810190601f16801561011a5780820380516001836020036101000a031916815260200191505b509250505060405180910390f35b34801561013457600080fd5b506101816004803603604081101561014b57600080fd5b81019080803573ffffffffffffffffffffffffffffffffffffffff16906020019092919080359060200190929190505050610515565b604051808215151515815260200191505060405180910390f35b3480156101a757600080fd5b506101b0610607565b6040518082815260200191505060405180910390f35b3480156101d257600080fd5b50610215600480360360208110156101e957600080fd5b81019080803573ffffffffffffffffffffffffffffffffffffffff16906020019092919050505061060d565b6040518082815260200191505060405180910390f35b34801561023757600080fd5b50610240610625565b604051808260ff1660ff16815260200191505060405180910390f35b34801561026857600080fd5b50610271610638565b6040518080602001828103825283818151815260200191508051906020019080838360005b838110156102b1578082015181840152602081019050610296565b50505050905090810190601f1680156102de5780820380516001836020036101000a031916815260200191505b509250505060405180910390f35b3480156102f857600080fd5b506103456004803603604081101561030f57600080fd5b81019080803573ffffffffffffffffffffffffffffffffffffffff169060200190929190803590602001909291905050506106d6565b604051808215151515815260200191505060405180910390f35b34801561036b57600080fd5b506103d86004803603606081101561038257600080fd5b81019080803573ffffffffffffffffffffffffffffffffffffffff169060200190929190803573ffffffffffffffffffffffffffffffffffffffff1690602001909291908035906020019092919050505061082f565b604051808215151515815260200191505060405180910390f35b3480156103fe57600080fd5b506104616004803603604081101561041557600080fd5b81019080803573ffffffffffffffffffffffffffffffffffffffff169060200190929190803573ffffffffffffffffffffffffffffffffffffffff169060200190929190505050610a9e565b6040518082815260200191505060405180910390f35b60008054600181600116156101000203166002900480601f01602080910402602001604051908101604052809291908181526020018280546001816001161561010002031660029004801561050d5780601f106104e25761010080835404028352916020019161050d565b820191906000526020600020905b8154815290600101906020018083116104f057829003601f168201915b505050505081565b600081600560003373ffffffffffffffffffffffffffffffffffffffff1673ffffffffffffffffffffffffffffffffffffffff16815260200190815260200160002060008573ffffffffffffffffffffffffffffffffffffffff1673ffffffffffffffffffffffffffffffffffffffff168152602001908152602001600020819055508273ffffffffffffffffffffffffffffffffffffffff163373ffffffffffffffffffffffffffffffffffffffff167f8c5be1e5ebec7d5bd14f71427d1e84f3dd0314c0f7b2291e5b200ac8c7c3b925846040518082815260200191505060405180910390a36001905092915050565b60025481565b60046020528060005260406000206000915090505481565b600360009054906101000a900460ff1681565b60018054600181600116156101000203166002900480601f0160208091040260200160405190810160405280929190818152602001828054600181600116156101000203166002900480156106ce5780601f106106a3576101008083540402835291602001916106ce565b820191906000526020600020905b8154815290600101906020018083116106b157829003601f168201915b505050505081565b600081600460003373ffffffffffffffffffffffffffffffffffffffff1673ffffffffffffffffffffffffffffffffffffffff168152602001908152602001600020541015151561072657600080fd5b81600460003373ffffffffffffffffffffffffffffffffffffffff1673ffffffffffffffffffffffffffffffffffffffff1681526020019081526020016000206000828254039250508190555081600460008573ffffffffffffffffffffffffffffffffffffffff1673ffffffffffffffffffffffffffffffffffffffff168152602001908152602001600020600082825401925050819055508273ffffffffffffffffffffffffffffffffffffffff163373ffffffffffffffffffffffffffffffffffffffff167fddf252ad1be2c89b69c2b068fc378daa952ba7f163c4a11628f55a4df523b3ef846040518082815260200191505060405180910390a36001905092915050565b600081600460008673ffffffffffffffffffffffffffffffffffffffff1673ffffffffffffffffffffffffffffffffffffffff168152602001908152602001600020541015151561087f57600080fd5b81600560008673ffffffffffffffffffffffffffffffffffffffff1673ffffffffffffffffffffffffffffffffffffffff16815260200190815260200160002060003373ffffffffffffffffffffffffffffffffffffffff1673ffffffffffffffffffffffffffffffffffffffff168152602001908152602001600020541015151561090a57600080fd5b81600460008573ffffffffffffffffffffffffffffffffffffffff1673ffffffffffffffffffffffffffffffffffffffff1681526020019081526020016000206000828254019250508190555081600460008673ffffffffffffffffffffffffffffffffffffffff1673ffffffffffffffffffffffffffffffffffffffff1681526020019081526020016000206000828254039250508190555081600560008673ffffffffffffffffffffffffffffffffffffffff1673ffffffffffffffffffffffffffffffffffffffff16815260200190815260200160002060003373ffffffffffffffffffffffffffffffffffffffff1673ffffffffffffffffffffffffffffffffffffffff168152602001908152602001600020600082825403925050819055508273ffffffffffffffffffffffffffffffffffffffff168473ffffffffffffffffffffffffffffffffffffffff167fddf252ad1be2c89b69c2b068fc378daa952ba7f163c4a11628f55a4df523b3ef846040518082815260200191505060405180910390a3600190509392505050565b600560205281600052604060002060205280600052604060002060009150915050548156fea165627a7a723058205f778e6492de74f2bb92105f7c8c6f69a5af103989f0cae7b89dcb523bcbfdb10029",
  "source": "// SPDX-License-Identifier: MIT\npragma solidity >=0.4.22 <0.9.0;\n\n// reward tokens\n\ncontract RWD {\n    string public name = \"Reward Token\";\n    string public symbol = \"RWD\";\n    uint256 public totalSupply = 1000000000000000000000000;\n    uint8 public decimal = 18;\n\n    event Transfer(address indexed _from, address indexed _to, uint _value);\n    event Approval(\n        address indexed _owner,\n        address indexed _spender,\n        uint _value\n    );\n\n    mapping(address => uint256) public balanceOf;\n    mapping(address => mapping(address => uint256)) public allowance;\n\n    constructor() public {\n        balanceOf[msg.sender] = totalSupply;\n    }\n\n    function transfer(address _to, uint _value) public returns (bool success) {\n        require(balanceOf[msg.sender] >= _value );\n\n        balanceOf[msg.sender] -= _value;\n        balanceOf[_to] += _value;\n\n        emit Transfer(msg.sender, _to, _value);\n        return true;\n    }\n\n\n    function approve(\n        address _spender,\n        uint256 _value\n    ) public returns (bool success) {\n        allowance[msg.sender][_spender] = _value;\n        emit Approval(msg.sender, _spender, _value);\n        return true;\n    }\n\n    function TransferFrom(\n        address _from,\n        address _to,\n        uint256 _value\n    ) public returns (bool success) {\n        require(balanceOf[_from] >= _value);\n        require(allowance[_from][msg.sender] >= _value);\n\n        balanceOf[_to] += _value;\n        balanceOf[_from] -= _value;\n        allowance[_from][msg.sender] -= _value;\n\n        emit Transfer(_from, _to, _value);\n        return true;\n    }\n}\n",
  "sourcePath": "/Users/pasapulagnanasurya/Documents/GitHub/__BcBcc___/my_pro/contracts/RWD.sol",
  "compiler": {
    "name": "solc",
    "version": "0.5.1+commit.c8a2cb62.Emscripten.clang"
  },
  "schemaVersion": "3.4.15",
  "updatedAt": "2023-08-12T11:45:48.738Z",
  "networkType": "ethereum",
  "devdoc": {
    "methods": {}
  },
  "userdoc": {
    "methods": {}
  }
}